{
  "contractName": "Voting",
  "abi": [
    {
      "inputs": [],
      "stateMutability": "nonpayable",
      "type": "constructor"
    },
    {
      "anonymous": false,
      "inputs": [
        {
          "indexed": true,
          "internalType": "uint256",
          "name": "_candidateId",
          "type": "uint256"
        }
      ],
      "name": "votedEvent",
      "type": "event"
    },
    {
      "inputs": [
        {
          "internalType": "uint256",
          "name": "",
          "type": "uint256"
        }
      ],
      "name": "candidates",
      "outputs": [
        {
          "internalType": "uint256",
          "name": "id",
          "type": "uint256"
        },
        {
          "internalType": "string",
          "name": "name",
          "type": "string"
        },
        {
          "internalType": "uint256",
          "name": "voteCount",
          "type": "uint256"
        }
      ],
      "stateMutability": "view",
      "type": "function",
      "constant": true
    },
    {
      "inputs": [],
      "name": "candidatesCount",
      "outputs": [
        {
          "internalType": "uint256",
          "name": "",
          "type": "uint256"
        }
      ],
      "stateMutability": "view",
      "type": "function",
      "constant": true
    },
    {
      "inputs": [],
      "name": "totalVotes",
      "outputs": [
        {
          "internalType": "uint256",
          "name": "",
          "type": "uint256"
        }
      ],
      "stateMutability": "view",
      "type": "function",
      "constant": true
    },
    {
      "inputs": [
        {
          "internalType": "address",
          "name": "",
          "type": "address"
        }
      ],
      "name": "voters",
      "outputs": [
        {
          "internalType": "bool",
          "name": "",
          "type": "bool"
        }
      ],
      "stateMutability": "view",
      "type": "function",
      "constant": true
    },
    {
      "inputs": [
        {
          "internalType": "uint256",
          "name": "_candidateId",
          "type": "uint256"
        }
      ],
      "name": "vote",
      "outputs": [],
      "stateMutability": "nonpayable",
      "type": "function"
    },
    {
      "inputs": [],
      "name": "getCandidates",
      "outputs": [
        {
          "components": [
            {
              "internalType": "uint256",
              "name": "id",
              "type": "uint256"
            },
            {
              "internalType": "string",
              "name": "name",
              "type": "string"
            },
            {
              "internalType": "uint256",
              "name": "voteCount",
              "type": "uint256"
            }
          ],
          "internalType": "struct Voting.Candidate[]",
          "name": "",
          "type": "tuple[]"
        }
      ],
      "stateMutability": "view",
      "type": "function",
      "constant": true
    }
  ],
  "bytecode": "0x608060405234801561001057600080fd5b5060408051808201909152600681526544656570616b60d01b602082015261003790610061565b604080518082019091526005815264426875766960d81b602082015261005c90610061565b61024e565b60028054906000610071836100c9565b909155505060408051606081018252600254808252602080830185815260008486018190529283529082905292902081518155915190919060018201906100b8908261018f565b506040820151816002015590505050565b6000600182016100e957634e487b7160e01b600052601160045260246000fd5b5060010190565b634e487b7160e01b600052604160045260246000fd5b600181811c9082168061011a57607f821691505b60208210810361013a57634e487b7160e01b600052602260045260246000fd5b50919050565b601f82111561018a57600081815260208120601f850160051c810160208610156101675750805b601f850160051c820191505b8181101561018657828155600101610173565b5050505b505050565b81516001600160401b038111156101a8576101a86100f0565b6101bc816101b68454610106565b84610140565b602080601f8311600181146101f157600084156101d95750858301515b600019600386901b1c1916600185901b178555610186565b600085815260208120601f198616915b8281101561022057888601518255948401946001909101908401610201565b508582101561023e5787850151600019600388901b60f8161c191681555b5050505050600190811b01905550565b6106888061025d6000396000f3fe608060405234801561001057600080fd5b50600436106100625760003560e01c80630121b93f1461006757806306a49fce1461007c5780630d15fd771461009a5780632d35a8a2146100b15780633477ee2e146100ba578063a3ec138d146100dc575b600080fd5b61007a610075366004610471565b61010f565b005b610084610244565b60405161009191906104d0565b60405180910390f35b6100a360035481565b604051908152602001610091565b6100a360025481565b6100cd6100c8366004610471565b6103c6565b60405161009193929190610551565b6100ff6100ea36600461057a565b60016020526000908152604090205460ff1681565b6040519015158152602001610091565b3360009081526001602052604090205460ff16156101745760405162461bcd60e51b815260206004820152601760248201527f596f75206861766520616c726561647920766f7465642e00000000000000000060448201526064015b60405180910390fd5b60008111801561018657506002548111155b6101c75760405162461bcd60e51b815260206004820152601260248201527124b73b30b634b21031b0b73234b230ba329760711b604482015260640161016b565b336000908152600160208181526040808420805460ff191690931790925583835282905281206002018054916101fc836105c0565b909155505060038054906000610211836105c0565b909155505060405181907ffff3c900d938d21d0990d786e819f29b8d05c1ef587b462b939609625b684b1690600090a250565b6060600060025467ffffffffffffffff811115610263576102636105d9565b6040519080825280602002602001820160405280156102b857816020015b6102a560405180606001604052806000815260200160608152602001600081525090565b8152602001906001900390816102815790505b50905060015b60025481116103c057600081815260208181526040918290208251606081019093528054835260018101805491928401916102f8906105ef565b80601f0160208091040260200160405190810160405280929190818152602001828054610324906105ef565b80156103715780601f1061034657610100808354040283529160200191610371565b820191906000526020600020905b81548152906001019060200180831161035457829003601f168201915b50505050508152602001600282015481525050826001836103929190610623565b815181106103a2576103a261063c565b602002602001018190525080806103b8906105c0565b9150506102be565b50919050565b600060208190529081526040902080546001820180549192916103e8906105ef565b80601f0160208091040260200160405190810160405280929190818152602001828054610414906105ef565b80156104615780601f1061043657610100808354040283529160200191610461565b820191906000526020600020905b81548152906001019060200180831161044457829003601f168201915b5050505050908060020154905083565b60006020828403121561048357600080fd5b5035919050565b6000815180845260005b818110156104b057602081850181015186830182015201610494565b506000602082860101526020601f19601f83011685010191505092915050565b60006020808301818452808551808352604092508286019150828160051b87010184880160005b8381101561054357603f19898403018552815160608151855288820151818a8701526105258287018261048a565b928901519589019590955250948701949250908601906001016104f7565b509098975050505050505050565b83815260606020820152600061056a606083018561048a565b9050826040830152949350505050565b60006020828403121561058c57600080fd5b81356001600160a01b03811681146105a357600080fd5b9392505050565b634e487b7160e01b600052601160045260246000fd5b6000600182016105d2576105d26105aa565b5060010190565b634e487b7160e01b600052604160045260246000fd5b600181811c9082168061060357607f821691505b6020821081036103c057634e487b7160e01b600052602260045260246000fd5b81810381811115610636576106366105aa565b92915050565b634e487b7160e01b600052603260045260246000fdfea264697066735822122015d31ddb7dbe35bd238e5a2503f00eb53e7a479b135faa40ff951263b2e96bde64736f6c63430008150033",
  "immutableReferences": {},
  "source": "// SPDX-License-Identifier: MIT \r\npragma solidity ^0.8.0;\r\n\r\ncontract Voting {\r\n    struct Candidate {\r\n        uint id;\r\n        string name;\r\n        uint voteCount;\r\n    }\r\n\r\n    mapping(uint => Candidate) public candidates;\r\n    mapping(address => bool) public voters;\r\n    uint public candidatesCount;\r\n    uint public totalVotes;\r\n\r\n    event votedEvent(uint indexed _candidateId);\r\n\r\n    constructor(){\r\n        addCandidate(\"Deepak\");\r\n        addCandidate(\"Bhuvi\");\r\n    }\r\n\r\n    function addCandidate(string memory _name) private {\r\n        candidatesCount++;\r\n        candidates[candidatesCount] = Candidate(candidatesCount, _name, 0);\r\n    }\r\n\r\n    function vote(uint _candidateId) public {\r\n        require(!voters[msg.sender], \"You have already voted.\");\r\n        require(_candidateId > 0 && _candidateId <= candidatesCount, \"Invalid candidate.\");\r\n\r\n        voters[msg.sender] = true;\r\n        candidates[_candidateId].voteCount++;\r\n        totalVotes++;\r\n\r\n        emit votedEvent(_candidateId);\r\n    }\r\n\r\n    function getCandidates() public view returns (Candidate[] memory) {\r\n        Candidate[] memory candidateList = new Candidate[](candidatesCount);\r\n        for (uint i = 1; i <= candidatesCount; i++) {\r\n            candidateList[i - 1] = candidates[i];\r\n        }\r\n        return candidateList;\r\n    }\r\n}\r\n",
  "sourcePath": "E:\\Git Repo\\DApp\\contracts\\Voting.sol",
  "compiler": {
    "name": "solc",
    "version": "0.8.21+commit.d9974bed.Emscripten.clang"
  },
  "schemaVersion": "3.4.16",
  "updatedAt": "2024-11-28T07:25:11.448Z",
  "networkType": "ethereum",
  "devdoc": {
    "kind": "dev",
    "methods": {},
    "version": 1
  },
  "userdoc": {
    "kind": "user",
    "methods": {},
    "version": 1
  }
}